:020000040800F2
:10000000A018002001010008233500087D2A0008FF
:1000100021350008E90C0008C53800080000000080
:10002000000000000000000000000000473500084C
:100030005D0D000800000000453500084935000846
:100040001B0100081B0100081B0100081B01000820
:100050001B0100081B010008010F0008070F000822
:100060000D0F0008130F0008190F0008ED0C000811
:100070001B0100081B0100081B0100081B010008F0
:100080001B0100081B010008990B00081B01000858
:100090001B0100081B0100081B0100081B010008D0
:1000A0001B0100081B0100081B0100081B010008C0
:1000B000C9350008D5350008000000001B01000804
:1000C0001B01000800000000000000001B010008E8
:1000D00000000000B93800081B0100080000000003
:1000E0001B0100081B0100081B010008DFF80CD0F1
:1000F00000F030FD00480047893E0008A0180020AD
:100100000648804706480047FEE7FEE7FEE7FEE7B1
:10011000FEE7FEE7FEE7FEE7FEE7FEE7C53500087F
:10012000ED0000082DE9F04F4FF0000C4FF00003F8
:1001300001EB1C6EBEF90250BEF900400EF5807E48
:10014000BEF90290BEF900800EF5807EBEF9027005
:10015000BEF900600EF5807EBEF902B0BEF900A0C7
:100160000EF5807ED044D944A8EB4A0AA9EB4B0B8C
:100170004FEAA4044FEAA50504EBA60405EBA70586
:10018000A4EB6606A5EB670704EBA80405EBA9053D
:10019000A4EB6808A5EB690906EBAB06A7EBAA0779
:1001A000A6EB6B0B07EB6A0A458020F8044B4780EF
:1001B00020F8046BA0F8029020F8048BA0F802A0AD
:1001C00020F804BB03F1010393FAA3FC402BAFD149
:1001D000A0EB82014FF0100312090FF2361000F16C
:1001E000000006B403EB430C6144A2F5803202EB3D
:1001F0008332B1F90250B1F90040A1EB0301B0F92B
:1002000002B0B0F900A000F10400A5EB040E0EFB53
:100210000BFC0AEB4B0E05FB0ACB04FB0ECAB1F933
:100220000250B1F90040A1EB0301B0F90290B0F91E
:10023000008000F10400A5EB040E0EFB09FC08EBA6
:10024000490E05FB08C904FB0EC8B1F90250B1F90B
:100250000040A1EB0301B0F90270B0F9006000F1B9
:100260000400A5EB040E0EFB07FC06EB470E05FB96
:1002700006C704FB0EC6B1F90250B1F9004001F106
:100280000001D044D944A8EB4A0AA9EB4B0B4FEA32
:10029000A4044FEAA50504EB264405EB2745A4EB8F
:1002A000E636A5EBE73704EB284405EB2945A4EB3C
:1002B000E838A5EBE93906EB2B46A7EB2A47A6EB76
:1002C000EB3B07EBEA3A4D800C8019444F800E80DF
:1002D0001944A1F80290A1F800801944A1F802A0E5
:1002E00021F804BBB2F5803283DA03EB430C61449E
:1002F000A2F101025FEA024E18BFA0EB0C007FF4EE
:1003000076AF06BC4FEA830392087FF46AAFBDE87C
:10031000F08F0040000000400000004000005DDD64
:10032000213BA3227E180000412D7EA5412D000017
:10033000412D00C000405DDD82E75DDD213B7EA5F3
:10034000412D004000000040000000400000AA2AAB
:1003500094126B39460649327C0CA8118E2349321F
:100360007C0CA3227E1821F77931AA2A9412A811B5
:100370008E235DDD213BA3227E180000412D95C612
:10038000B13F461A2B1E58EE3735BEB4C53EA811F4
:100390008E235DDD213B63A97138DF089A28B7CD34
:1003A000C53E7EA5412D0000412D00C0004063A93F
:1003B0002B1E21F77931BEB4C53EBEB47C0C58EE7D
:1003C000373561AC213B95C6BAF9BAE571383BA720
:1003D00037355DDD82E75DDD213B7EA5412D21F7CF
:1003E00066D756D53F3D3BA78E23A811C9CAB7CDC6
:1003F000C53E61AC7E18AA2AC1C295C6B13FBEB443
:100400007C0C0040000000400000004000001E3B4B
:10041000B504693E9201C83C2403EB356409C83C2D
:1004200024036B3946066C30060E1E3BB504EB35D3
:100430006409AA2A94126B39460649327C0CAE2410
:100440000917AF37D607882E8D0F7E1E5D1BEB3543
:100450006409AA2A941224188C1F1E34F10AB326A8
:100460009015A8118E2349327C0CA3227E18140B00
:1004700060276C30060E7E1E5D1B7104FB2A882EE1
:100480008D0F461A2B1EC7FD5A2E9D2C1211FE15DC
:10049000E72021F77931AA2A9412A8118E2387F038
:1004A0005334B2281314480D202602EAE536B32649
:1004B0009015DF089A289CE32B39AE2409177104A4
:1004C000FB2A5DDD213BA3227E180000412D4ED783
:1004D000C53C9320EF198FFB6C2F78D1153E7E1E03
:1004E0005D1B21F77931E2CB0F3F641CC61CB8F2CB
:1004F000683395C6B13F461A2B1E58EE373597C163
:10050000FB3F24188C1F02EAE536F0BCEC3FFE15D9
:10051000E720BAE57138A6B8853FD5133D2282E1C0
:10052000DB39BEB4C53EA8118E235DDD213B40B151
:10053000AF3D790FDA244DD9423C2EAE423C480DF6
:10054000202656D53F3D8EAB823A140B602778D1DA
:10055000153E63A97138DF089A28B7CDC53EB1A70B
:100560001236A906CE2915CA4F3F78A66833710402
:10057000FB2A95C6B13FBCA576303902212C38C381
:10058000EC3F7EA5412D0000412D00C00040BCA5E0
:10059000CE29C7FD5A2EF0BCEC3F78A620268FFB53
:1005A0006C2F09BAB13FB1A73D2257F976304DB74C
:1005B0004F3F63A92B1E21F77931BEB4C53E8EABE8
:1005C000EF19ECF474325EB2153E2EAE9015B8F20F
:1005D00068332DB03F3D40B1121187F053342EAE39
:1005E000423CBEB47C0C58EE373561AC213BA6B81A
:1005F000D6072BEC1236C8AADB39F0BC240302EA7A
:10060000E53663A9713897C16EFEDCE7B03734A8D0
:10061000E53695C6BAF9BAE571383BA73735E2CB6E
:100620000FF59CE32B3978A6683378D173F082E11B
:10063000DB39EDA579314ED7EDEB6DDF823A99A527
:100640006C2F5DDD82E75DDD213B7EA5412D9CE3C6
:100650003AE352DBB63B99A5FB2A02EA19DF4DD9F2
:10066000423CEDA59A2887F026DB4ED7C53C78A6FC
:10067000202621F766D756D53F3D3BA78E23C7FDE1
:10068000DFD363D3AF3D34A8E720710494D078D191
:10069000153E63A92B1E140B8CCD94CF723EC8AAB5
:1006A0005D1BA811C9CAB7CDC53E61AC7E18241820
:1006B00050C8E2CB0F3F2EAE90157E1E25C615CA40
:1006C0004F3F2DB09412AE244AC451C8853F5EB24C
:1006D0008D0FAA2AC1C295C6B13FBEB47C0C6C3046
:1006E0008EC1E2C4D43F4DB76409EB35B1C038C305
:1006F000EC3F09BA46061E3B2CC097C1FB3FF0BC3D
:100700002403202A04DB203A21FA02F0002170475A
:1007100021FA02F3D040C2F1200291400843194669
:10072000704740EA01039B0703D009E008C9121F84
:1007300008C0042AFAD203E011F8013B00F8013B9B
:10074000521EF9D27047D2B201E000F8012B491EC7
:10075000FBD270470022F6E710B513460A4604465E
:100760001946FFF7F0FF204610BDF0B480EA010201
:10077000D40F4200B2EB410F02D2024608461146A6
:100780004A0042D0C30DDDB2C1F3C752AD1A202DCD
:1007900035DAC1F3160141F4000204B15242C5F149
:1007A000200602FA06F12A411044B3EBD05F23D0B1
:1007B000C4B1012DA0EBC35009DCF0BC4FF00042E6
:1007C00002EAC352DBB200F5000000F0E6B84000D8
:1007D00000F1807000EBC350A0F1807040EAD1704E
:1007E000490009E0490841EAC071A0EBC35000F597
:1007F0000000400800EBC350F0BC00F0C5B86142F7
:10080000012202EB4101001BF6E7F0BC704781F0CA
:100810000041AAE780F00040A7E780EA010210B596
:1008200002F00043400022D04A001FD0010E01EB2D
:100830001261C0F35600C2F3560240F4000042F4C5
:100840000002A0FB022000047F39140400D0401CE9
:1008500050EA124001D44000491EC2B20C0604EB1B
:10086000D010401C4008802A02D003E0002010BDB8
:1008700020F00100002900DA0020184310BD4200DA
:1008800005D0C0F3C7525242914201DC00207047AC
:1008900000EBC150704770B521F0004303430CD00A
:1008A000C1F30A550024D5EB040564EB0403D61705
:1008B000AD1AB34102DB0020014670BD201841EBA8
:1008C000025170BDC10F80EAE0700844CA07962348
:1008D000002100F062B820F00040C10DC0F3160006
:1008E00040F400007F2901DA00207047962903DCDC
:1008F000C1F19601C840704796398840704700F0B2
:10090000004230F000400AD0C10D01F56071C0F323
:10091000160042EA0151C208400711437047002007
:100920000146704701F0004330B421F0004150EA25
:10093000010206D00A0DA2F56072C1F31301002A6C
:1009400002DC30BC00207047440F44EAC104C100FF
:10095000E01830BC00EBC25000F016B830B50B46C2
:10096000014600202022012409E021FA02F59D42DF
:1009700005D303FA02F5491B04FA02F52844151EB3
:10098000A2F10102F1DC30BD0029A8BF7047401C74
:10099000490008BF20F00100704710B4B0FA80FC95
:1009A00000FA0CF050EA010404BF10BC704749B1D2
:1009B000CCF1200421FA04F411FA0CF118BF012142
:1009C00021430843A3EB0C01CB1D4FEA00614FEA22
:1009D000102042BF002010BC704700EBC3501044F1
:1009E0000029A4BF10BC7047401C490008BF20F07C
:1009F000010010BC704710B5141E73F1000408DA32
:100A0000401C41F1000192185B411A4301D120F0D2
:100A1000010010BD2DE9F04D92469B4611B1B1FA8F
:100A200081F202E0B0FA80F22032904600F0A4F8A1
:100A300004460F4640EA0A0041EA0B0153465A4673
:100A4000084313D0114653EA010019D0C8F14002FF
:100A50005046FFF756FE05460E465046594642465A
:100A600000F08AF8084305D0012004E0204639460A
:100A7000BDE8F08D0020054346EAE0762C4337437D
:100A80000A986305E40AA0EB08000022FD0A44EA84
:100A900047540A3002D500200146E9E70105101944
:100AA0006941DDE9084500196941BDE8F04DA2E75B
:100AB0002DE9F04D00231A461B1A8A4103DB002062
:100AC0000146BDE8F08DC1F30A52C1F3130141F4B0
:100AD00080154FF0000BD10702D100186D41521E56
:100AE0000027044640F2FF11384601EB620A3E46F9
:100AF0008046024600204FF48011FFF702FEC21923
:100B00007141BB1846EB0100B4EB030C75EB000C14
:100B100004D3E41A65EB000517460E46241908F1C4
:100B200001006D4180463428E3DDF91946EB0600EB
:100B3000091BA84103D24FF0FF32134601E0002207
:100B400013461BEB070046EB0A51BDE8F04DFFF7DB
:100B500052BF0000064C074D06E0E06840F001037C
:100B600094E8070098471034AC42F6D3FFF7C2FA76
:100B7000FC5500081C560008202A04DB203A00FA25
:100B800002F1002070479140C2F1200320FA03F3E4
:100B90001943904070470000014800F009BB000075
:100BA0004400002070B5044600688168C943C90745
:100BB00017D1816821F00101816000F0DDFF054659
:100BC0000AE000BF00F0D8FF401B022804D92068CB
:100BD0008068C043C00706D020688068C043C00753
:100BE000F0D0002070BDA06A40F01000A062E06A62
:100BF00040F00100E062012070BD10B50146406A7E
:100C0000826A12F0500F05D0006A026BBDE81040F6
:100C100008461047816A41F4007181620168896861
:100C2000C1F3424107290CD1017B51B9816A21F4FA
:100C300080718162816AC90403D4816A41F0010133
:100C4000816200F093FA10BD10B5406A816A41F0EC
:100C500040018162C16A41F00401C16200F0A7FA5B
:100C600010BD10B5406A00F0A1FA10BDF8B500261D
:100C70000446009600688168C943C9072DD0816881
:100C800041F001018160164816490068B0FBF1F09F
:100C900000E0401E00900028FBD100F06DFF0546EB
:100CA00016E000BF00F068FF401B022810D9206842
:100CB0008068C043C0070BD0A06A40F01000A0625B
:100CC000E06A40F00100E06284F824600120F8BD91
:100CD00020688068C043C007E4D10020F8BD000050
:100CE0000C00002040420F00FEE70000014800F029
:100CF000CBBC00007400002030B590F840500124B7
:100D0000AC40C56B6C60046863604368102B03687B
:100D100003D099600068C26030BD9A600068C1600D
:100D200030BD000000B599B028220A496846FFF797
:100D3000F8FC0848816A0A91C06A0B903022694623
:100D40000CA8FFF7EEFC022203490CA800F07CFB84
:100D500019B000BD440000201800002070470000BA
:100D60002DE9F84F0746544841880088491E8BB248
:100D7000401E82B20021084602F0F6F800240C2042
:100D80006FF00A0140F2431B0E0C4FF0DF0848F2EF
:100D90003045EFB3012F7DD18246894604EB8400B4
:100DA000420004EB840709EB870080B20323DF21B4
:100DB000CDF800A002F08AF906EA87021046DF2388
:100DC0007B21009500F0ADF8641CA4B20D2CE5D990
:100DD0000020009004EB840006EA800037A30C2278
:100DE000DF2102F0B5F9002446464FF482776042D5
:100DF00000EB800006EB400083B281B23A4600204F
:100E0000009500F08EF8641CA4B20B2CEFD300E028
:100E100011E0C4F1010000EB80000BEB40018BB24C
:100E200006EB400081B240F23F12384601B0BDE807
:100E3000F04F01F0AFBE81464FEA010A04EB840097
:100E4000420004EB84070AEB470080B20323DF2152
:100E5000CDF8009002F03AF906EA47021046DF2387
:100E60007B21009500F05DF8A41CA4B20D2CE5D9FF
:100E700000244646604200EB800006EB400083B24F
:100E800081B282220020009500F04BF8641CA4B2CD
:100E90000B2C00E00DE0EDD3C4F1010000EB80006D
:100EA0000BEB40018BB206EB400081B29F22822007
:100EB000BCE7BDE8F88F00008C1400202F487A00B2
:100EC0002DE9F8430025DFF834802C464FF47847AD
:100ED0004FF6FF76009738F8151006EA4400C1F186
:100EE000DF01024689B2DF2300F01BF86D1C641C91
:100EF000A4B2ADB2802CEDD3BDE8F8838C130020F2
:100F0000012000F03BBD022000F038BD042000F0BD
:100F100035BD082000F032BD102000F02FBD72B6A4
:100F2000FEE72DE9FE4F161ACDE900104FF000083C
:100F30005D1A47464FF0FF30002E02DD4FF00101F1
:100F400002E003D14FF000018B4602E08346C6F178
:100F50000006002D02DD4FF0010002E003D14FF04A
:100F60000000824602E08246C5F10005AE4201DD86
:100F7000344600E02C46601C4FF00009029019E056
:100F800000980C9A81B2019880B200F018F8B04431
:100F90002F44A04504DD0198A8EB040858440190B3
:100FA000A74203DD00983F1B5044009009F1010067
:100FB0001FFA80F902998945E2DDBDE8FE8F10B580
:100FC000144601F0A1FF2046BDE8104001F0C6BD67
:100FD0002DE9F047DFF8909000246FF00E076FF0D6
:100FE000070A09F5007800BF59F8241008B20E145A
:100FF000FFF768FC0821FFF742FC3946FFF73FFC8A
:1010000005463046FFF75EFC0821FFF738FC3946FD
:10101000FFF735FC0146FFF700FC06462946084667
:10102000FFF7FBFB3146FFF7A0FBFFF768FC02F080
:10103000EDFF5246FFF72FFCFFF774FC64B110215F
:10104000FFF71DFCFFF747FC48F82400641CA4B21E
:10105000802CC9D3BDE8F0870F21FFF710FCFFF704
:101060003AFCC8F80000F1E78C0D00207047000042
:10107000F8B50024009490F824202546012A12D0C7
:10108000012280F824204A681F23072A0DD206680F
:10109000776B521E02EB820293409F430B68934092
:1010A0001F43776319E00220F8BD06680D2A0AD2B3
:1010B000376BD21F02EB820293409F430B68934031
:1010C0001F43376309E0F76A0D3A02EB820293404F
:1010D0009F430B6893401F43F7620A680723066823
:1010E0000A2A0AD3F7680A3A02EB420293409F4366
:1010F0008B6893401F43F76008E0376902EB4202B8
:1011000093409F438B6893401F4337610A68102ABE
:1011100001D0112A20D1124B02689A4217D193684C
:101120001B0219D4936843F40003936009681029E3
:1011300012D10C490C4A0968B1FBF2F101EB8101B3
:10114000490000E0491E00910029FBD104E0816ABA
:1011500041F020018162012480F824502046F8BD2E
:10116000002401400C00002040420F0030B40C4924
:10117000094A0A4C0888136844F82030094B526821
:1011800043F82020401C088001200831487030BC02
:10119000054800F0DFB90000180000208C01002095
:1011A000280000208C050020440000207047704774
:1011B00010B5044600684168890626D5016889078C
:1011C00023D5A16AC90603D4A16A41F40071A162C2
:1011D0008168C1F34241072910D1217B71B941686F
:1011E00021F020014160A06A20F48070A062A06A12
:1011F000C00403D4A06A40F00100A0622046FFF7BB
:10120000B5FF21686FF01200086020684168090688
:101210002ED5016849072BD5A16AC90603D4A16A56
:1012200041F40051A1628168C1F30231072909D05C
:101230004168490515D48168C1F34241072910D19D
:10124000217B71B9416821F080014160A06A20F4DE
:101250008050A062A06AC00503D4A06A40F00100DB
:10126000A0622046FFF702FF21686FF00C000860C3
:101270002068416849060DD50068C0070AD0A06AF9
:1012800040F48030A062204600F094F821686FF0AE
:101290000100086010BD00002DE9F0414FF000078B
:1012A00004003D467ED0A06A002628B9E66284F894
:1012B0002460204600F080F82046FFF773FCA16A06
:1012C00001F01001014304D0A06A40F01000A062B8
:1012D00068E0A16A21F4885141F00201A1626268CC
:1012E000E169237B0A4347EA43010A43A1684FF4BB
:1012F0008077B94208D0012906D0002194F814C0A3
:10130000BCF1010F02D00AE03946F7E7F3B1A36A56
:1013100043F02003A362E36A43F00103E36223681E
:10132000D3F804C02CF4694C4CEA010CC3F804C097
:1013300023689968DFF870C001EA0C0111439960D5
:10134000A168B9420BD0012909D00CE0DFF85CC0DC
:10135000A3690CEB43330B4343F40061DFE7218ABD
:101360000D05A5F580152168CB6A23F470032B4386
:10137000CB62216889680E4B1940914208D1E66220
:10138000A16A21F0020141F00101A162BDE8F081F2
:10139000A06A20F0020040F01000A062E06A40F075
:1013A0000100E0620120F1E7FDF7E1FF00E0FFFF4F
:1013B000FE0E1FFF7047000070B586B00026054680
:1013C000009601960296039600681A4988422ED12B
:1013D0001949886940F400708861886900F40070D8
:1013E0000490886940F0040088618869694600F0CB
:1013F00004000490032000900190104800F0CAFA05
:10140000104C0F48C4E900068020C4E90260800047
:101410002061800060612020A061C001E061204661
:1014200000F0DCF908B1FFF77AFD2C62656206B0C6
:1014300070BD00000024014000100240000801407F
:1014400008000240740000202DE9F0478946044658
:101450003B4900683B4F0E1D9046884201D0B84280
:1014600007D1306810F4702F03D001252846BDE85D
:10147000F08794F8240001280CD0012084F824007F
:101480002046FFF7F3FB05004FF0000004D084F87E
:101490002400EBE70220EAE7A16A40F601629143EB
:1014A00041F48071A1622168B94218D1326812F406
:1014B000702F14D0A16A41F48011A16231684905EE
:1014C00005D5A16A21F4005141F48051A162A16ABD
:1014D000C9040AD5E16A21F00601E16206E0A26AC8
:1014E00022F48012A2624968E9E7E06284F82400ED
:1014F000216A15488862216A1448C862216A144822
:10150000086321686FF0020008602068816841F478
:1015100080718160216843464A464C31206A00F060
:101520008BF920688168C1F342410729816803D0A3
:1015300041F48011816099E741F4A001FAE70000CD
:101540000024014000280140FB0B0008630C000848
:10155000490C000810B5044690F82400012807D073
:10156000012084F824002046FFF71CFB10B113E093
:10157000022010BD21688A6822F480728A60216A84
:1015800091F82120022A07D1084600F00EF8A16A3E
:1015900030B141F04001A162002184F8241010BD57
:1015A00021F4885141F00101F5E710B590F82110C0
:1015B0000022022905D00421816380F82020012027
:1015C00010BD01680B6823F00E030B6001680B6807
:1015D00023F001030B6090F84030C46B012101FA45
:1015E00003F3636080F8211080F82020104610BDBE
:1015F00010B590F821100024022903D00421816342
:1016000001243DE001680A6822F00E020A600168C8
:101610000A6822F001020A601A4A0168914201D167
:10162000012121E0174A1432914201D110211BE01F
:10163000144A2832914201D1891515E0114A3C32F1
:10164000914201D189140FE00E4A5032914202D1E9
:101650004FF4803108E00B4A6432914202D14FF4DA
:10166000801101E04FF08071064A083A5160012173
:1016700080F82110002180F82010416B01B18847CB
:10168000204610BD080002402DE9F05FC16B0C68D8
:1016900001680B68D0F840C0042202FA0CF2494DF0
:1016A000DFF824A1494E4A4FDFF828B1DFF828E1DE
:1016B00022422CD05A072AD50A68920603D40A6817
:1016C00022F004020A600168A94201D1042219E053
:1016D000514501D1402215E0B14202D14FF4806260
:1016E00010E0B94202D14FF480420BE0594502D1DB
:1016F0004FF4802206E0714502D14FF4800201E0F0
:101700004FF080622F4908394A60C16A3BE04FF0D0
:10171000020808FA0CF818EA040F4FF000094FF01D
:10172000010235D05FEA837832D50B689B0605D479
:101730000B6823F00A030B6080F821200168A9429E
:1017400001D1022219E0514501D1202215E0B14218
:1017500002D14FF4007210E0B94202D14FF40052AE
:101760000BE0594502D14FF4003206E0714502D139
:101770004FF4001201E04FF00072124908394A603C
:1017800080F82090816A00291AD0BDE8F05F0847F0
:10179000082505FA0CF5254212D01B0710D50B6859
:1017A00023F00E030B6090F84010C36B02FA01F1B6
:1017B0005960826380F8212080F82090016BE2E775
:1017C000BDE8F09F080002401C00024030000240CB
:1017D00044000240580002406C00024030B528B37B
:1017E00008C8134914221944B1FBF2F18900C163FE
:1017F00010498163022141771A6843F6F0718A43E8
:10180000D0E900142143D0E902452C432143046967
:101810002143446921438469214311431960002114
:101820004163012242770177084630BD012030BD77
:10183000F8FFFDBF0000024070B5044690F820009C
:10184000002501280CD0012084F8200094F82160A4
:101850000020012E06D084F820000225284670BD05
:10186000022070BD022684F82160A063206806680B
:1018700026F0010606602046FFF73EFAE06A0028DF
:101880002068016802D041F00E0106E021F0040159
:1018900001602068016841F00A0101602068016868
:1018A00041F001010160D9E770B5044600F064F928
:1018B0000546601C02D004480078044400F05CF93E
:1018C000401BA042FAD370BD0000002070B5294E25
:1018D0000121304600F03EF97514012812D1002094
:1018E00002F0C4FA244C207820B900222946304660
:1018F00000F03DF92078012804D101222946304624
:1019000000F035F902213446304600F023F9012871
:1019100005D102F0ABFA2946204600F020F9042157
:10192000204600F017F9012806D1022002F09EFAA5
:101930002946204600F013F90821204600F00AF954
:10194000012806D1032002F091FA2946204600F032
:1019500006F91021204600F0FDF8012808D10420E6
:1019600002F084FA29462046BDE8704000F0F7B83E
:1019700070BD00000010014020000020044910B597
:101980000A68024202D00860FFF7A0FF10BD000005
:10199000140401402DE9F84FDFF89C91002409F16F
:1019A000040A0AF1040B23460F270BF1040EBBE0D7
:1019B0000125A5402A40AA4276D1DFF880C14E68B1
:1019C000A6EB0C0866452BD00DDC032E34D005DCCD
:1019D00036B3012E19D0022E2FD11BE0112E16D0B6
:1019E000122E2AD119E0B8F5881F19D006DCB8F5F7
:1019F000803F15D0B8F5801F1FD111E0B8F5001F4A
:101A00000ED0B8F5041F18D10AE0CB6815E0CB68FA
:101A10001B1D12E0CB6808330FE0CB680C330CE0E1
:101A20008B682BB1012B4FF0080303D0456104E014
:101A3000042302E0056100E00023FF2A01D80646E6
:101A400001E000F104064FEA840501D9A5F1200563
:101A5000D6F8008007FA05FC28EA0C0803FA05F519
:101A600048EA0508C6F800804D68ED005BD5344DA6
:101A7000AE6946F00106AE61AD6924F0030605F0DB
:101A8000010500952F4D06EB050CDCF80850A60764
:101A9000360F07FA06F825EA0805DFF8AC8040455E
:101AA00003D14FF0000810E03DE0DFF8A080404592
:101AB00002D14FF0010808E0DFF89480404502D1E0
:101AC0004FF0020801E04FF0030808FA06F848EA70
:101AD0000508CCF808804D68D9F80060ED034D4644
:101AE00001D5164300E096432E604D68DAF8006099
:101AF000AD03554601D5164300E096432E604D6870
:101B0000DBF80060ED025D4601D5164300E0964328
:101B10002E604D68DEF80060AD02754601D51643B3
:101B200000E096432E60641C0A6832FA04F57FF4E4
:101B30003FAFBDE8F88F0000000401400000111025
:101B4000001002400000014000080140000C01406C
:101B5000001001408068084000D001207047C26832
:101B600021EA02030A4043EA0241016170470AB1D7
:101B7000016170470904FBE7014880687047000075
:101B8000000000200248816802781144816070479B
:101B900000000020074810B5016841F01001016005
:101BA000032000F073F80F2000F006F800F024F88E
:101BB000002010BD0020024070B50D4D04464FF4CA
:101BC0007A712878B1FBF0F00A490968B1FBF0F0AE
:101BD00000F060FB48B9102C07D200222146501EAD
:101BE00000F034F800206C6070BD012070BD000072
:101BF000000000200C0000200C4808B5816941F06D
:101C000001018161816901F001010091C16941F027
:101C10008051C161C06900F0805000900448416863
:101C200021F0E06141F00071416008BD0010024008
:101C30000000014000F01F02012191404009800096
:101C400000F1E020C0F8001170470000F0B40E4B26
:101C50001B680C46C3F30223C3F10705042D00D90A
:101C60000425191D072901D2002300E0DB1E0126EF
:101C700006FA05F1491E214099409E40761E164005
:101C80003143F0BC01F04EBC0CED00E0064900F021
:101C9000070208684FF6FF03184040EA0220034A93
:101CA00010430860704700000CED00E00000FA05EA
:101CB0002DE9F84305460078354CC00754D0E0695B
:101CC0000026C00008D4E06940F08050E061E0697F
:101CD000012600F0805000902E480168C90512D4FA
:101CE0000168804641F480710160FFF745FF0746B7
:101CF00005E000BFFFF740FFC01B642823D8D8F8D9
:101D00000000C005F6D5206A10F4407021D0A988E3
:101D100001F4407181421CD0206A1F49012220F445
:101D200040700A6000220A602062C00711D0FFF7ED
:101D300023FF074641F2883808E000BFFFF71CFF89
:101D4000C11B414502D90320BDE8F883206A800702
:101D5000F4D5206A696820F44070084320621EB1FF
:101D6000E06920F08050E0612878800705D5606840
:101D7000A96820F44040084360602878C00605D573
:101D80006068E96820F48000084360600020DBE7B9
:101D90000010024000700040400442422DE9F0472C
:101DA0000F46050061D0434E306800F00700B8428E
:101DB00009D2306820F0070038433060306800F006
:101DC0000700B84251D128683B4C810712D5400723
:101DD00003D5606840F4E06060602878000703D5B0
:101DE000606840F4605060606068A96820F0F000AE
:101DF000084360602878C00728D06868012810D0A0
:101E00002168022810D0890700292EDA616821F0A4
:101E1000030101436160FFF7AFFE804641F288395C
:101E20000DE021688903EFE78901EDE7FFF7A4FEE4
:101E3000A0EB0801494502D90320BDE8F08760689E
:101E4000696800F00C00B0EB810FEFD1306800F052
:101E50000700B8420BD9306820F0070038433060E3
:101E6000306800F00700B84201D00120E5E728788B
:101E7000400705D56068E96820F4E06008436060C9
:101E80002878000706D56068296920F4605040EA88
:101E9000C100606000F038F86168084AC1F30311BE
:101EA000515CC8400649086006480068FFF784FE98
:101EB0000020C2E700200240001002405441000808
:101EC0000C0000200400002004480549006849680F
:101ED000044AC1F30221515CC84070470C00002045
:101EE0000010024064410008044805490068496840
:101EF000044AC1F3C221515CC84070470C00002065
:101F0000001002406441000812A185B00FC98DE89D
:101F10000F0014A0144A006804905168134801F09F
:101F20000C03042B10D0082B0ED1C1F38343C9033B
:101F30001DF803000AD5516804AAC1F34041515C61
:101F40000A4A5043B0FBF1F005B0704708494843D6
:101F5000FAE7000002030405060708090A0B0C0D46
:101F60000E0F1010010200000010024000127A0053
:101F700000093D002DE9F84F040070D02078C04DD5
:101F8000C00749D06868C0F38100012807D068689D
:101F9000C0F38100022809D16868C00306D528680B
:101FA000800339D560680028E7D035E06068B0F577
:101FB000803F0BD010B1B0F5A02F11D0286820F4CD
:101FC00080302860286820F4802002E0286840F4EF
:101FD00080302860606890B1FFF7CEFD06460AE0C9
:101FE000286840F480202860F0E700BFFFF7C4FDB8
:101FF000801B642873D828688003F7D50CE0FFF7AE
:10200000BBFD064605E000BFFFF7B6FD801B642858
:10201000F0D828688003F7D420789A4E80074FF0D4
:1020200001094FF0000839D5686810F00C0F07D08F
:102030006868C0F38100022809D16868C00306D42B
:102040002868800714D52069012808D110E020698C
:10205000B0B1C6F80090FFF78FFD074605E00AE132
:10206000FFF78AFDC01B0228C4D828688007F7D56F
:102070002868616920F0F80040EAC10028600DE09E
:10208000C6F80080FFF778FD074604E0FFF774FD0F
:10209000C01B022823D828688007F7D420780007BF
:1020A0002CD57948A169D9B1C0F80090FFF764FD3B
:1020B000074604E0FFF760FDC01B02280FD8686ADE
:1020C0008007F7D571484FF4FA510068B0FBF1F082
:1020D000009000BF0098411E0091FAD20EE080E00F
:1020E000C0F80080FFF748FD074604E0FFF744FD15
:1020F000C01B022875D8686A8007F7D4207840078B
:1021000060D5E8690027C00008D4E86940F0805035
:10211000E861E869012700F0805000905C480168A0
:10212000C90513D40168834641F480710160FFF74B
:1021300023FD824606E000BFFFF71EFDA0EB0A006C
:1021400064284ED8DBF80000C005F5D5E06801280A
:102150000AD008B1052813D0286A20F001002862AF
:10216000286A20F0040002E0286A40F0010028629A
:10217000E06841F2883B98B1FFF7FEFC82460BE035
:10218000286A40F004002862EEE700BFFFF7F4FC85
:10219000A0EB0A0159455AD8286A8007F6D50CE009
:1021A000FFF7EAFC824605E0FFF7E6FCA0EB0A0138
:1021B00059454CD8286A8007F6D41FB1E86920F049
:1021C0008050E861E06988B36968C1F38101022940
:1021D00044D00228C6F8608004D0FFF7CDFC044646
:1021E00038E034E0FFF7C8FC074604E0FFF7C4FC22
:1021F000C01B02282BD828688001F7D4206AB0F5CC
:10220000803F05D16868A16820F400300843686009
:10221000D4E908010843696821F47411084368602F
:10222000C6F86090FFF7A8FC044606E025E000BF72
:10223000FFF7A2FC001B022809D828688001F7D507
:102240001BE000BFFFF798FC001B022802D9032007
:10225000BDE8F88F28688001F4D40EE00128F7D09B
:102260006868226A00F48031914204D1616A00F406
:102270007010884201D00120EAE70020E8E7000062
:102280000010024000004242800442420C00002044
:102290000070004010B5401EB0F1807F01D30120D6
:1022A00010BD4FF0E02460610F21601701F03AF992
:1022B0000020A06107202061002010BD70477047FA
:1022C00070B590F83C20012A23D0012480F83C40CE
:1022D000022280F83D2003685A689D6822F070064B
:1022E0000A6832435A600C4B02689A4205D0B2F138
:1022F000804F02D0094B9A4204D1496825F08003EF
:102300001943916080F83D40002180F83C10084658
:1023100070BD022070BD0000002C01400004004090
:1023200010B5040003D094F83D0010B107E001207F
:1023300010BD002084F83C00204600F01FF8022069
:1023400084F83D00211D206801F04AF9012084F83D
:10235000460084F83E0084F83F0084F8400084F88A
:10236000410084F8420084F8430084F8440084F873
:10237000450084F83D00002010BD000008B501684C
:102380000B48B1F1804F0BD00A4A914207D1C16985
:1023900041F00201C161C06900F00200009008BD77
:1023A000C16941F00101C161C06900F00100F5E7B8
:1023B000001002400004004090F83D10012901D0B7
:1023C00001207047022180F83D100168CA6842F080
:1023D0000102CA6000680A49884205D0B0F1804F06
:1023E00002D00849884204D1816801F0070106291A
:1023F00003D0016841F00101016000207047000036
:10240000002C01400004004070B5044690F83C00E8
:10241000012817D0012584F83C50022084F83D00A3
:102420002068826822F0770222F47F428260086886
:10243000502830D00DDC20284DD005DC98B3102872
:102440003BD148E0022070BD302844D0402834D130
:1024500039E0602828D0702806D0B0F5805F2CD0F5
:10246000B0F5005F29D10AE0CB68D1E901212068ED
:1024700001F0E4F82068816841F0770109E0CB6859
:10248000D1E90121206801F0D9F82068816841F480
:102490008041816011E0CA684968206801F0E0F875
:1024A0005021206807E016E0CA684968206801F0FA
:1024B000E8F86021206801F0CBF884F83D50002056
:1024C00084F83C0070BDCA684968206801F0C8F80B
:1024D00040212068EFE7226801461046EBE770478D
:1024E00070B50446006801694FF00005C9438907CB
:1024F00015D4C168C943890711D4E91E01610120BF
:102500002077206880698007204602D0FFF7E7FF28
:1025100004E000F098F8204600F096F8257720684F
:102520000169C943490717D4C168C943490713D48E
:102530006FF004010161022020772068806910F4A7
:10254000407F204602D0FFF7CAFF04E000F07BF88E
:10255000204600F079F8257720680169C94309070A
:1025600016D4C168C943090712D46FF0080101618C
:10257000042020772068C0698007204602D0FFF73A
:10258000AEFF04E000F05FF8204600F05DF825772C
:1025900020680169C943C90617D4C168C943C9067F
:1025A00013D46FF010010161082020772068C06902
:1025B00010F4407F204602D0FFF791FF04E000F0C6
:1025C00042F8204600F040F8257720680169C943A9
:1025D000C90708D1C168C943C90704D1891E01616F
:1025E000204600F033F820680169C943090609D480
:1025F000C168C943090605D46FF080010161204616
:10260000FFF75CFE20680169C943490609D4C16827
:10261000C943490605D46FF040010161204600F02E
:102620005DF820680169C94389060BD4C168C943B4
:10263000890607D46FF0200101612046BDE8704093
:10264000FFF73DBE70BD7047704700002DE9F041B7
:102650001F490646006809681E4F002507F1080457
:1026600088420BD165703888B0F5807F06D13D80F7
:10267000022001F083FA08B9A570E57016493068A8
:102680000968884222D1042001F078FA18B1A571B6
:10269000042001F0EBFB78683221B0FBF1F201FB82
:1026A000120000B9257079681E20B1FBF0F200FB22
:1026B000121040B9032001F061FA08B1E57101E0A0
:1026C0000120E07125717868401C7860BDE8F081D8
:1026D000B80000202800002000010020704770474B
:1026E00070470000F8B5026804461068D168536965
:1026F00010F00F0F4FF0000554D003F0010601F465
:10270000907737435FD0C20705D0CA0503D5226C46
:1027100042F001022264420705D5DA0703D0226C99
:1027200042F002022264820705D5DA0703D0226C48
:1027300042F004022264020707D501F0200232436E
:1027400003D0226C42F008022264226C002A35D0A9
:10275000800604D5880602D5204600F0C4FF206814
:102760004069216CC0F3801001F00801014320464C
:1027700025D000F0A0FF2068416949061BD54169BA
:1027800021F040014161A06BA8B158494163A06BA1
:10279000FEF72EFF002811D0A06B416B01B0BDE801
:1027A000F040084783060ED58B060CD52046BDE8C1
:1027B000F84000F098BF2046FFF792FFF8BDFFF702
:1027C0008FFF2564F8BD266B2023012E52D1C6064B
:1027D00050D5CE064ED5106850680090506940061E
:1027E0002AD5A16B086840680004000CEAD0A68DC9
:1027F0008642E7D9E0858869202818D0D06820F47F
:102800008070D0602068416921F001014161206839
:10281000416921F04001416184F83E302563206820
:10282000C16821F01001C160A06BFEF7BEFEA08D53
:10283000E18D401A81B219E0A08DE18D401A81B27C
:10284000E08D0028BED00029BCD0D06820F4907064
:10285000D0602068426922F00102426184F83E3073
:1028600025632068C26822F01002C2602046FFF78C
:1028700036FFF8BD05062BD50D0629D594F83D0089
:102880002128F6D1A068B0F5805F01D12069B0B1F0
:10289000206A411C2162216800784860E08C401E5B
:1028A0000004000CE084E4D12068C16821F08001BC
:1028B000C1602068C16841F04001C160F8BD206A74
:1028C0000088C0F308005060206A801C2062E5E7A1
:1028D0004006F3D54806F1D5D168204621F04001E5
:1028E000D16084F83D3000F0C8F8F8BDA736000884
:1028F00070B5040004D094F83D00002510B106E046
:10290000012070BD84F83C50204600F023F82420BC
:1029100084F83D002068C16821F40051C160204660
:1029200000F03CFF2068016921F4904101612068BA
:10293000416921F02A0141612068C16841F40051D8
:10294000C1602564202084F83D0084F83E0000200A
:1029500070BD000030B585B000240094019402944D
:10296000039400681449884224D11448816941F4D1
:1029700080418161816901F480410491816941F064
:102980000401816180690E4D00F0040004904FF451
:1029900000700090022001900320039069462846B1
:1029A000FEF7F8FF2815CDE9000469462846029491
:1029B000FEF7F0FF05B030BD0038014000100240C6
:1029C00000080140704700002DE9F843044690F8E4
:1029D0003D001F4616460D4620284CD1C5B1BEB15C
:1029E00094F83C00012846D0012084F83C004FF0C8
:1029F0000008C4F84080212084F83D00FFF7BCF8AF
:102A0000A6848146E684A068B0F5805F03D004E028
:102A10000120BDE8F883206928B12E465FF000054B
:102A200084F83C800EE00026FAE78021204600F082
:102A300011FFA0B9AEB116F8010B21684860E08C17
:102A4000401EE084E08C4B464FF0000200970028C7
:102A5000EBD14FF04001204600F0FCFE30B10320E6
:102A6000D7E735F8020BC0F30800E6E7202084F82A
:102A70003D000020CDE70220CBE77047FEE72DE9BF
:102A8000FE4F161ACDE900104FF000085D1A4746B8
:102A90004FF0FF30002E02DD4FF0010102E003D1C4
:102AA0004FF000018B4602E08346C6F10006002D80
:102AB00002DD4FF0010002E003D14FF0000082463A
:102AC00002E08246C5F10005AE4201DD344600E079
:102AD0002C46601C4FF00009029018E0009881B26B
:102AE000019880B200F018F8B0442F44A04504DDEE
:102AF0000198A8EB040858440190A74203DD009810
:102B00003F1B5044009009F101001FFA80F902991F
:102B10008945E3DDBDE8FE8F10B500F0F5F90C48FE
:102B20004FF4007242614021016181150161094940
:102B3000094B0C8804F47F411960802141610161D7
:102B40002406240C1C6041610161026110BD00007B
:102B500000100140380000200C0C01400B4910B55A
:102B60004FF400734B6140220A618A150A61084CD8
:102B700000F47F42226080224A610A610006000C54
:102B800020604A610A610B6110BD00000010014025
:102B90000C0C01402DE9F0411C4615460E46074637
:102BA0000B46FFF76CFF3A46234631461046FFF7C7
:102BB00066FF23462A4619463846FFF760FF2A4635
:102BC00023463146BDE8F0411046FFF758BF0000EC
:102BD0002DE9F041141A5D1A641C6D1C5B1E521E17
:102BE000A4B2ADB29BB292B2069E00F0BDF91848F5
:102BF0004FF4807101614FF4007EC0F814E00022B0
:102C000006F47F4C80213306124F1E0C0FE0002388
:102C100009E000BFC7F800C0416101613E60416149
:102C200001615B1C9BB2A342F4D3521C92B2AA4234
:102C3000EDD3C0F810E0084841880088491EBDE87F
:102C4000F041401E8BB282B20021084600F08CB9E0
:102C5000001001400C0C01408C14002010B50F4CEA
:102C6000012220212046FEF782FF0122402120463A
:102C7000FEF77DFF012280212046FEF778FF01222A
:102C800011022046FEF773FF012251022046FEF793
:102C90006EFF03494FF47F40086010BD00100140F3
:102CA0000C0C014010B5FFF7D9FF00F01DF9CF2043
:102CB00000F092FA002000F07BFAC12000F078FAD0
:102CC000302000F075FAED2000F086FA642000F064
:102CD0006FFA032000F06CFA122000F069FA8120EC
:102CE00000F066FAE82000F077FA852000F060FA3C
:102CF000102000F05DFA7A2000F05AFACB2000F0A4
:102D00006BFA392000F054FA2C2000F051FA002020
:102D100000F04EFA342000F04BFA022000F048FA9E
:102D2000F72000F059FA202000F042FAEA2000F0E3
:102D300053FA002000F03CFA002000F039FAC020DD
:102D400000F04AFA1B2000F033FAC12000F044FAE8
:102D5000012000F02DFAC52000F03EFA302000F0EE
:102D600027FA302000F024FAC72000F035FAB72007
:102D700000F01EFA362000F02FFA482000F018FA72
:102D80003A2000F029FA552000F012FAB12000F0A4
:102D900023FA002000F00CFA1A2000F009FAB620FD
:102DA00000F01AFA0A2000F003FAA22000F000FA5C
:102DB000F22000F011FA002000F0FAF9262000F0CD
:102DC0000BFA012000F0F4F9E02000F005FA0F20E2
:102DD00000F0EEF92A2000F0EBF9282000F0E8F9E5
:102DE000082000F0E5F90E2000F0E2F9082000F0DC
:102DF000DFF9542000F0DCF9A92000F0D9F94320D4
:102E000000F0D6F90A2000F0D3F90F2000F0D0F935
:102E1000002000F0CDF9002000F0CAF9002000F0F9
:102E2000C7F9002000F0C4F9E12000F0D5F9002036
:102E300000F0BEF9152000F0BBF9172000F0B8F93A
:102E4000072000F0B5F9112000F0B2F9062000F0DB
:102E5000AFF92B2000F0ACF9562000F0A9F93C2086
:102E600000F0A6F9052000F0A3F9102000F0A0F969
:102E70000F2000F09DF93F2000F09AF93F2000F06C
:102E800097F90F2000F094F92B2000F0A5F900200D
:102E900000F08EF9002000F08BF9012000F088F995
:102EA0003F2000F085F92A2000F096F9002000F07C
:102EB0007FF9002000F07CF9002000F079F9EF2084
:102EC00000F076F9112000F087F97820FEF7ECFC8D
:102ED000292000F081F900F033F802490120C1F8FF
:102EE000A80110BD0000224270B5064C2025656186
:102EF0006420FEF7D9FC2561BDE870403220FEF762
:102F0000D3BC00000010014070B50C4E05460C46C5
:102F1000B07A00F061F9280A00F04AF9E8B200F04E
:102F200047F9307B00F058F9200A00F041F9E0B28F
:102F300000F03EF9BDE8704000F060B98C1400204C
:102F400008482C210181012181714FF4A071018079
:102F5000F02141802A2141812B2181816C21362061
:102F600000F052B98C1400202DE9F041DFF85080B8
:102F700007461C4615460E4698F80A0000F02CF944
:102F8000380A00F015F9F8B200F012F9280A00F03A
:102F90000FF9E8B200F00CF998F80C0000F01CF9F9
:102FA000300A00F005F9F0B200F002F9200A00F052
:102FB000FFF8E0B200F0FCF8BDE8F04100F01EB907
:102FC0008C1400202DE9FF4F81B08A460EA9DFF84E
:102FD000EC9091E83100203800F0FF080AEB040083
:102FE000401E83B20198B9F800B000EB5400401EB7
:102FF00082B251460198FFF7B7FF002D4FF0000550
:1030000049D12F4808EB480100EB810A00F27440D7
:1030100000EB081817E00C2C03D018F805700026F8
:103020000CE01AF80570FAE7F80701D0039800E001
:103030000498FFF793FD7F08761CF6B2B6EB540FA9
:10304000F2D36D1CEDB2A542E5D326E00C2C08D0DE
:103050001C4901EB08100026475D0AEB05000090B3
:1030600014E0174808EB480100EB8100F3E70398F0
:10307000A9F80000F80706D0009881B20198304402
:1030800080B2FFF749FD7F08761CF6B2B6EB540F0D
:10309000EDD36D1CEDB2A542D8D30B48A9F800B012
:1030A0004188008805B0491EBDE8F04F401E8BB234
:1030B00082B200210846FFF757BF00003800002009
:1030C0006C410008E04500088C1400202DE9FF4FFA
:1030D00083B00026DDF840801D463446B2464FEAF4
:1030E0005807DFF86490DFF864B028E0281B401E22
:1030F000C1B20A2000F050FF0599B1FBF0F00A219F
:10310000B0FBF1F201FB120026B9691E8C4201DA14
:1031100028B101263030C0B28DE8010502E020223E
:103120008DE804050398B9F8003007FB040080B26D
:10313000BBF800200499FFF745FF641CE4B2AC42E1
:10314000D4D307B0BDE8F08F3A000020380000204B
:103150002DE9FE4F1C4691468A460546114E124FF8
:10316000DFF84880DDF830B014E03188491EA9420C
:1031700015DB7188491E514511DB8DE8010A3B883A
:10318000B8F8002051462846FFF71CFF05EB590010
:1031900085B2641C2078A0F120015E29E5D9BDE844
:1031A000FE8F00008C1400203A0000203800002020
:1031B00007494FF480720A614A154A61054B0006BF
:1031C000000C18608020486108610A6170470000A7
:1031D000001001400C0C014006494FF480724A6116
:1031E0004A154A61044B000218608020486108615A
:1031F0000A617047001001400C0C01400148007A40
:10320000FFF7EABF8C14002010B50C46FFF7E4FF6F
:103210002046BDE81040FFF7CBBF0000FEB50024FC
:103220001648009401941449029401608915816044
:1032300004730475022505614FF460214460C16187
:10324000FEF72AF808B1FDF76AFE0126CDE900462F
:1032500069460A480294FDF70BFF08B1FDF75FFECF
:10326000CDE9006569460548FDF702FF002801D059
:10327000FDF755FEFEBD0000002401404400002083
:10328000054808B5416941F001014161406900F01C
:103290000100009008BD0000001002402DE9F0433D
:1032A00085B000262F480096019602960396816904
:1032B00041F010018161816901F01001049181697F
:1032C00041F020018161816901F02001049181694F
:1032D00041F004018161816901F004010491816977
:1032E00041F0080181618069DFF87C8000F008000E
:1032F0000490002242F2E0314046FEF738FCDFF84D
:103300006C904FF6FF77002239464846FEF72FFCB7
:1033100001244FF40050CDE90004022569464046DF
:10332000CDE90245FEF736FB1F2000901048CDE99D
:10333000010569464046FEF72DFB4FF47870039572
:103340008DE8510069464046FEF724FB009703953F
:10335000CDE9014669464846FEF71CFB05B0BDE8CD
:10336000F08300000010024000100140000C0140FA
:103370000000111010B5002211460620FEF766FC71
:103380000620FEF757FC002211460720FEF75EFCE0
:103390000720FEF74FFC002211460820FEF756FCDE
:1033A0000820FEF747FC002211460920FEF74EFCDC
:1033B0000920FEF73FFC002211460A20FEF746FCDA
:1033C0000A20FEF737FC002201211220FEF73EFC06
:1033D0001220FEF72FFC002202210B20FEF736FC04
:1033E0000B20FEF727FC002211461C20FEF72EFCC6
:1033F0001C20FEF71FFC002211461D20FEF726FCB4
:103400001D20FEF717FC002203212520FEF71EFCDD
:10341000BDE810402520FEF70DBC000010B586B0B9
:1034200000241648009401940294039404944FF0ED
:103430008041059401607C21C0E9011440F6C90176
:10344000C0E903148461FEF76BFF08B1FDF767FD67
:103450004FF48050009069460848FEF7D5FF08B148
:10346000FDF75DFD049404A904480594FEF728FFC8
:10347000002801D0FDF753FD06B010BDB8000020B4
:1034800010B586B000241748009401940294039468
:1034900004941349059401604721C0E9011440F2E6
:1034A000E731C0E903148461FEF73AFF08B1FDF784
:1034B00036FD4FF48050009069460A48FEF7A4FF9D
:1034C00008B1FDF72CFD049404A906480594FEF705
:1034D000F7FE002801D0FDF722FD06B010BD000068
:1034E00000040040000100200C4810B50A490160AA
:1034F0004FF416514160002181600C22C160C0E987
:1035000004128161C161FFF7F3F9002803D0BDE81F
:103510001040FDF704BD10BD0038014048010020F7
:10352000FEE7FEE70907090E002806DA00F00F00A3
:1035300000F1E02080F8141D704700F1E02080F8D1
:103540000014704770477047FEF71CBB30B593B04E
:1035500028216846FDF7FEF814210AA8FDF7FAF8BD
:10356000002501200F9510951195010412958DE805
:10357000230004904FF4E010CDE9081002240794D2
:103580006846FEF7F7FC08B172B6FEE70AA90F20FD
:1035900081E831004FF48060CDE90D0502210AA8D1
:1035A000FEF7FCFB08B172B6FEE74FF44040119005
:1035B0000F940FA8FEF77CFB002801D072B6FEE73F
:1035C00013B030BD704700000148FEF789BF00000E
:1035D000B80000200148FEF783BF00000001002072
:1035E00070B50268134B144C4FF08046984203D0DC
:1035F000B04201D0A04203D122F070054A682A43AC
:10360000984203D0B04201D0A04203D122F44074CA
:10361000CA6822434C6922F08002224302608A6811
:10362000C2620A688262984201D10969016301217C
:10363000416170BD002C01400004004010B5846859
:1036400042EA032224F47F440A432243826010BDED
:10365000826822F070020A4342F0070181607047DD
:1036600010B5036A046A24F001040462846924F03A
:10367000F00444EA021423F00A020A43846102625D
:1036800010BD10B5036A23F0100303628369046A56
:1036900023F4704343EA023224F0A00343EA011109
:1036A0008261016210BD10B5406A0021C185C184EC
:1036B000FFF716F810BD0168CA6822F49072CA605C
:1036C00001684A6922F001024A61016B012904D1B3
:1036D0000168CA6822F01002CA60202180F83E10FA
:1036E00000210163704708B590F83E10222901D0EF
:1036F000022008BD82684FF480539A4201D10169CB
:1037000021B1816A9A421BD04AB10AE00268816AFB
:103710005268C2F308020A80816A891C08E00269C3
:1037200072B10268526802F07F020A70816A491C15
:103730008162C18D491E0904090CC18503D019E0BD
:1037400002685268F1E70168CA6822F02002CA6084
:103750000168CA6822F48072CA6001684A6922F06E
:1037600001024A61202180F83E10016B012903D03B
:10377000FFF728F9002008BD002101630168CA682D
:1037800022F01002CA6001680A68D20602D50A68EF
:1037900049680091818DFEF7A2FFEBE770B5044602
:1037A00000680169E26821F4405111430161216917
:1037B000A0680843616908432168CA6841F20C6344
:1037C0009A430243CA6020684169A26921F44071AA
:1037D000114341611E492068884202D1FEF784FBF3
:1037E00001E0FEF771FB00EBC00101EB0012606825
:1037F00064218000B2FBF0F3B3FBF1F36FF0180625
:103800007343B2FBF0F5B2FBF0F605EB8305322310
:1038100003EB0515B5FBF1F5B6FBF1F605F0F00588
:1038200005EB0615B2FBF0F6B2FBF0F0B0FBF1F0E1
:103830006FF01802504306EB800003EB0010B0FB62
:10384000F1F0216800F00F002844886070BD00008E
:10385000003801402DE9F041984617460E460446CF
:10386000069D1DE0681C1BD02DB1FEF785F9A0EB6D
:103870000800A84214D92068C16821F4D071C16041
:103880002068416921F001014161202084F83D0058
:1038900084F83E00002084F83C000320BDE8F0815D
:1038A0002068006836EA000004D00020B842D9D071
:1038B0000020F3E70120F9E70148FEF713BF0000FD
:1038C00048010020FEE700000FB4054B10B503A926
:1038D000044A029800F01EF810BC5DF814FB0000CA
:1038E000613B00083C00002002E008C8121F08C12C
:1038F000002AFAD170477047002001E001C1121F71
:10390000002AFBD1704700000149086070470000A1
:10391000400000202DE9FF4F89B09B46044600255A
:1039200006E025280BD05A460B999047641C6D1C65
:1039300020780028F5D10DB02846BDE8F08F00278B
:10394000B8460122474900E0074314F8013F203BF5
:1039500002FA03F00842F7D120782E2819D114F882
:10396000010F47F004072A280ED06FF02F022078AD
:10397000A0F1300109290CD808EB880102EB4101C4
:1039800000EB0108641CF2E70A98641C50F8048BF1
:103990000A9020780028CED0642808D0692806D064
:1039A00075281ED05A460B9990476D1C58E00A990D
:1039B0004FF00A0901C90A91002802DA40422D217C
:1039C00002E0390504D52B218DF82010012103E0F8
:1039D000F90704D02021F7E78A4608AE0DE0002160
:1039E000FAE70A994FF00A0901C90A91F7E749462F
:1039F000FCF7B4FF303106F8011D0028F7D1ADEB1C
:103A0000060000F12009780701D44FF00108C845ED
:103A100002DDA8EB090000E000208046002706E058
:103A200008A85A46C05D0B9990476D1C7F1C5745EE
:103A3000F6DB04E030205A460B9990476D1CB8F134
:103A40000001A8F10108F5DC05E016F8010B5A4663
:103A50000B9990476D1CB9F10001A9F10109F4DC43
:103A6000641C65E70928010010B5124A002110B155
:103A700001280AD012E0104830F821309BB242F8F9
:103A80002130491CFF29F7D908E00C4830F82130D3
:103A90009BB242F82130491CFF29F7D905494FF460
:103AA000807201F58060FCF73DFBBDE81040FDF73A
:103AB0008FBA00008C0900208C0100208C050020AA
:103AC00038B50B4C00216088401E83B22088401E10
:103AD00082B20846FFF748FA0648002100880090A5
:103AE00060882288401E83B20846FFF771F838BD0F
:103AF0008C1400203A00002038B51648EF234FF40C
:103B0000A072008800907B210020FFF761F8124A24
:103B10000020116852F820308B4200D91946401C11
:103B200080B28028F6D30D4B002000BF52F8204011
:103B300064256C43B4FBF1F423F81040401C80B2C0
:103B40008028F3D30120FDF70BF9BDE838400120B0
:103B5000FDF7B6B93A0000208C0F00208C1300202E
:103B600038B504468DF8000001231A46694602481C
:103B7000FEF72AFF204638BD480100200149085CB5
:103B800070470000200000202DE9F84F054640F264
:103B900005164FF4837B01292FD000297ED140F2F6
:103BA0003F1778233A4613213046FFF7DDF9884C5A
:103BB00078233A462088009013213046FFF708F812
:103BC000DE233A467C215D465846FFF7CDF9208832
:103BD0000090DE233A467C212846FEF7F9FF7D4817
:103BE0004188008801B0491EBDE8F04F401E8BB2ED
:103BF00082B200210846FFF7B7B9002476A30C2251
:103C00001321B04630460094FFF7A2FA00214FF48A
:103C10008C7A0C2715B1012D7ED04BE0714B1868C2
:103C20000646054653F821201544824200D9104625
:103C3000B24200D21646491C89B2FF29F2D900BF10
:103C40004CF6406148434FEA104967A30C221F21FC
:103C500040460094FFF77CFA04234A461F21504651
:103C60000097FFF733FA4CF640604643360C5FA3EB
:103C70000C222B2140460094FFF76AFA04233246B7
:103C80002B2150460097FFF721FA280A4CF6406195
:103C90004843050C0C2256A3372100E083E0404640
:103CA0000094FFF755FA04232A463721504600971F
:103CB000FFF70CFA4FA30C224F21454640460094D3
:103CC000FFF746FA4DA30C225B2128460094FFF72C
:103CD0003FFA4DA30C227C2158460094FFF738FA96
:103CE0004C49012528464E6851F82020B24201D99E
:103CF00016460546401C80B28028F5D308684CF66D
:103D0000406148434FEA104843A30C22882158469B
:103D10000094FFF71DFA00E047E042464FF4937825
:103D20000423882140460097FFF7D0F94CF6406005
:103D30004643360C3AA30C22942158460094FFF7D0
:103D400007FA04233246942140460097FFF7BEF954
:103D500003232A46A02158460097FFF7B7F932A35C
:103D60000C22A0214FF495700094FFF7F1F92FA3D6
:103D70000C22AC2158460094FFF7EAF92DA30C223F
:103D8000B82158460094FFF7E3F92CA30C22C42174
:103D900058460094FFF7DCF92BA30C22D02158469B
:103DA0000094FFF7D5F9BDE8F88F294B186806464F
:103DB0004FEA000553F821201544824200D91046ED
:103DC000B24200D21646491C89B2FF29F2D937E720
:103DD0003A0000208C14002054696D6520576176EC
:103DE000650000008C0100204D6178004D696E0077
:103DF00041762E00556E69743A6D5600323032337A
:103E00002F352F330000000046465420286D5629D8
:103E1000000000008C0F00204443616D7000000022
:103E20004D61784143000000487A000059696E6E88
:103E3000616E00005A68616E6700000032303230F7
:103E400030373032000000003031323900000000DD
:103E50008C0500200020044902460A54401CC0B2D0
:103E60000528FAD3704700002000002005490A5CAD
:103E7000012A04D0002A01D101220A5470470022ED
:103E8000FBE700002000002008B5FDF783FEFFF7E8
:103E90005DFBFFF703FAFFF7F3F9FFF7BFF9FFF751
:103EA000EFFAFFF721FBFFF7B9FAFFF763FAFEF726
:103EB000F9FE00F0D1F800F0D5F8FFF7CBFF274C62
:103EC0000125207800B92570607888B9FCF72AFFB1
:103ED000002023A3102201460090FFF739F910209B
:103EE000009023480423002102887820FFF7EEF891
:103EF000A07828B90120FFF741FEFFF7B5FDA570B6
:103F0000E07838B90120FFF739FE00F0B1F8FFF78B
:103F1000F3FDE570207910B900F046F8257160795D
:103F200048B9144E14A03168FFF7CEFC16A0716892
:103F3000FFF7CAFC6571A07910B9FFF7C1FDA57143
:103F4000E0790028BDD10320FFF718FE06460120C6
:103F5000FFF714FE3146FFF717FEB2E730000020EE
:103F600053616D706C65204E756D626572733A00B9
:103F700028000020180000204144435F56414C3087
:103F8000203D2025640D0A004144435F56414C31D9
:103F9000203D2025640D0A000246012000E0504328
:103FA000491EC9B2FBD2704738B5002412A31022B3
:103FB0002146A2200094FFF7CBF80120FFF7DEFD99
:103FC00002461020009001230021BE20FFF77EF85A
:103FD0000220FFF7D3FD60B10220FFF7CFFD0128DB
:103FE00006D106A3009410220021DC20FFF7B0F8D0
:103FF00038BD04A30094F6E743483A0053544F50A9
:104000002000000053544152540000002DE9F041BB
:1040100006460F46FCF74CFD041E0D4618BF012056
:10402000284320F00040C0F17F6000F1E040C00F65
:104030000ED0301C18BF0120384320F00040C0F1E2
:104040007F6000F1E040C00F04BF0120FFF75CFC7F
:1040500020462946BDE8F0810148FEF7ADB90000D1
:10406000B80000200148FEF7A7B9000000010020B9
:10407000F8B5044633484FF48075772300880090E4
:104080002A4613210020FEF7A3FD00202A460090B7
:10409000772313211046FCF744FF782340F23F12A8
:1040A00012210020FEF776FD274D002014B1012CCF
:1040B00019D031E0254A116852F820308B4200D9DE
:1040C0001946401C80B2FF28F6D90020642452F81B
:1040D00020306343B3FBF1F325F81030401C80B26D
:1040E000FF28F3D918E01A4AD2F8001052F820300D
:1040F0008B4200D91946401C80B2FF28F6D9002017
:10410000642452F820306343B3FBF1F325F81030F8
:10411000401C80B2FF28F3D9002634461F270097A1
:1041200035F816002246C0F1770081B27723104699
:10413000FCF7F7FE761C641CA4B2B6B2FF2CEED9D5
:10414000F8BD00003A0000208C1100208C010020F6
:104150008C050020000000000000000001020304A4
:104160000607080900000000010203040000000027
:104170000000000000000000000004040404040427
:104180000004000000140A0A000000000000000003
:10419000000014143F140A3F0A0A000000041E1510
:1041A00005060C14150F0400000012150D0A142C3E
:1041B0002A1200000000040A0A1E15150936000024
:1041C00000020201000000000000000000201008B2
:1041D0000808080808102000000204080808080859
:1041E0000804020000000004150E0E150400000073
:1041F00000000404041F0404040000000000000088
:10420000000000000002020100000000001F00008A
:10421000000000000000000000000000000200009C
:1042200000100808080404020202010000000E1138
:1042300011111111110E0000000004060404040401
:10424000040E000000000E1111080402011F0000FE
:1042500000000E11100C1010110E00000000080CD0
:104260000A0A091E0818000000001F01010F1010A3
:10427000110E000000000E09010F1111110E0000B7
:1042800000001F09080404040404000000000E11CB
:10429000110E1111110E000000000E1111111E104F
:1042A000120E0000000000000400000000040000E6
:1042B00000000000000400000004040000201008BA
:1042C0000402040810200000000000001F00001F6E
:1042D0000000000000020408102010080402000082
:1042E00000000E11110804040004000000000E116B
:1042F0001915151D011E0000000004040C0A0A1EF9
:104300001233000000000F12120E1212120F0000E2
:1043100000001E1101010101110E000000000F122A
:1043200012121212120F000000001F120A0E0A02CF
:10433000121F000000001F120A0E0A0202070000EE
:1043400000001C1201013911120C00000000331290
:10435000121E12121233000000001F040404040491
:10436000041F000000003E080808080808090700AC
:10437000000037120A060A0A12370000000007027E
:1043800002020202223F000000001B1B1B1B15152E
:104390001515000000003B1216161A1A121700001D
:1043A00000000E1111111111110E000000000F126A
:1043B000120E02020207000000000E111111111767
:1043C000190E180000000F12120E0A121237000008
:1043D00000001E1101060810110F000000001F153B
:1043E00004040404040E000000003312121212121E
:1043F000120C000000003312120A0A0C0404000020
:1044000000001515150E0A0A0A0A000000001B0A12
:104410000A04040A0A1B000000001B0A0A04040420
:10442000040E000000001F0908040402121F00000F
:10443000001C04040404040404041C00000202021E
:104440000404080808100000000E080808080808FE
:1044500008080E0000040A00000000000000000030
:1044600000000000000000000000003F0004000009
:10447000000000000000000000000000000C121C02
:10448000123C000000000302020E1212120E000085
:1044900000000000001C1202021C000000001810A6
:1044A000101C1212123C000000000000000C121E32
:1044B000021C000000003804041E0404041E000056
:1044C00000000000003C120C021E221C000003022F
:1044D000020E12121237000000000400000604044D
:1044E000040E000000000800000C08080808080777
:1044F00000000302023A0A0E12370000000007040F
:1045000004040404041F000000000000000F15153F
:104510001515000000000000000F121212370000F5
:1045200000000000000C1212120C0000000000003D
:10453000000F1212120E020700000000001C1212DF
:10454000121C103800000000001B060202070000C9
:1045500000000000001E020C101E000000000004FD
:10456000040E04040418000000000000001B1212D6
:10457000123C0000000000000037120A0C0400008A
:10458000000000000015150E0A0A000000000000DF
:10459000001B0A040A1B0000000000000037120A7A
:1045A0000C04040300000000001E0804041E0000A8
:1045B000001808080804080808081800080808086F
:1045C0000808080808080808000604040408040489
:1045D000040406000225180000000000000000008E
:1045E00000000000000000000000000000000000CB
:1045F0000000000808080808080800001818000053
:1046000000486C24120000000000000000000000C0
:104610000000002424247F1212127F1212120000C4
:104620000000081C2A2A0A0C1828282A2A1C080814
:1046300000000022251515152A5854545422000054
:104640000000000C1212120A76252911916E00004A
:104650000006060403000000000000000000000047
:10466000004020101008080808080810102040001A
:1046700000020408081010101010100808040200AE
:104680000000000008086B1C1C6B080800000000FC
:1046900000000000080808087F080808080000005B
:1046A00000000000000000000000000006060403F7
:1046B0000000000000000000FE00000000000000FC
:1046C00000000000000000000000000006060000DE
:1046D000000080404020201010080804040202005E
:1046E0000000001824424242424242422418000084
:1046F000000000080E08080808080808083E000026
:104700000000003C4242422020100804427E00008B
:104710000000003C4242201820404042221C000081
:10472000000000203028242422227E20207800004F
:104730000000007E0202021A26404042221C0000B5
:10474000000000382402021A2642424224180000C7
:104750000000007E22221010080808080808000047
:104760000000003C4242422418244242423C0000E5
:10477000000000182442424264584040241C0000BB
:1047800000000000000018180000000018180000C9
:1047900000000000000000080000000000080804FD
:1047A000000000402010080402040810204000000F
:1047B0000000000000007F0000007F0000000000FB
:1047C000000000020408102040201008040200002D
:1047D0000000003C42424640201010001818000023
:1047E0000000001C225A555555552D42221C000030
:1047F0000000000808181414243C224242E700007C
:104800000000001F2222221E22424242221F0000DC
:104810000000007C4242010101010142221C000013
:104820000000001F2242424242424242221F000038
:104830000000003F4212121E12120242423F0000CC
:104840000000003F4212121E121202020207000074
:104850000000003C2222010101712122221C0000E3
:10486000000000E7424242427E42424242E70000EC
:104870000000003E0808080808080808083E000074
:104880000000007C10101010101010101010110FEC
:104890000000007722120A0E0A121222227700006C
:1048A000000000070202020202020202427F000030
:1048B00000000077363636362A2A2A2A2A6B00006C
:1048C000000000E346464A4A5252526262470000E4
:1048D0000000001C2241414141414141221C000095
:1048E0000000003F424242423E0202020207000034
:1048F0000000001C2241414141414D53321C6000E7
:104900000000003F4242423E1212222242C70000F3
:104910000000007C4242020418204042423E000057
:104920000000007F4908080808080808081C000063
:10493000000000E74242424242424242423C000002
:10494000000000E742422224241414180808000042
:104950000000006B49494949555536222222000082
:10496000000000E7422424181818242442E700001D
:10497000000000772222141408080808081C000010
:104980000000007E2120101008040442423F000075
:1049900000780808080808080808080808087800C7
:1049A00000000202040408080810102020204040E3
:1049B000001E1010101010101010101010101E00FB
:1049C000003844000000000000000000000000006B
:1049D000000000000000000000000000000000FFD8
:1049E00000060800000000000000000000000000B9
:1049F000000000000000003C4278444242FC0000FD
:104A0000000000030202021A26424242261A000057
:104A10000000000000000038440202024438000098
:104A200000000060404040784442424264D80000A8
:104A3000000000000000003C427E0202423C0000F8
:104A4000000000F08808087E08080808083E0000FA
:104A5000000000000000007C22221C023C42423C7C
:104A6000000000030202023A4642424242E70000CE
:104A70000000000C0C00000E08080808083E0000AA
:104A80000000003030000038202020202020221E8E
:104A90000000000302020272120A161222770000BE
:104AA0000000000E0808080808080808083E000072
:104AB000000000000000007F9292929292B70000E6
:104AC000000000000000003B4642424242E7000076
:104AD000000000000000003C42424242423C000014
:104AE000000000000000001B26424242221E020776
:104AF000000000000000007844424242447840E058
:104B000000000000000000774C040404041F0000B3
:104B1000000000000000007C42023C40423E0000D9
:104B2000000000000008083E0808080808300000DF
:104B300000000000000000634242424262DC0000CC
:104B400000000000000000E74224241408080000D0
:104B500000000000000000EB4949555522220000EA
:104B6000000000000000007624181818246E0000D1
:104B700000000000000000E7422424141808080781
:104B8000000000000000007E22100808447E0000A3
:104B900000C0202020202010202020202020C00025
:104BA0001010101010101010101010101010101005
:104BB0000006080808080810080808080808060081
:104BC0000C32C200000000000000000000000000E5
:104BD000C9EE000027FC140414A4811042084040D0
:104BE000104017FC2040E0E0215022482C46204095
:104BF0000040DBDA11041124112411241124FD24B6
:104C0000112411241124112411241D24E1244224EF
:104C100002040404CAD00200010000007FFC01006D
:104C2000010001003FF8210821082108210821285E
:104C3000211001000100C8AB00000000018002400B
:104C40000430180860061FF90100010001003FF858
:104C50000100010001007FFEB6AF0000000000204F
:104C60003E20007C002200227F22102210221222ED
:104C70001222224223423D82009CB5E7000001003F
:104C800001001FF0610C410441047FFC4104410418
:104C900041047FFC01000102010201FCD7D30000A6
:104CA00000003FF8001000600080010000807FFEDF
:104CB0000040004000200020002018400780BCBCBD
:104CC00010201020102013FEFC201020102015FCB6
:104CD00018843088D0481050102010505188260673
:104CE000CAF501000120011001107FFC038005407E
:104CF0000540092011102108410481020100010032
:104D00000100D3D002000200FFFE040004000FF0F7
:104D1000081018102FF0481088100FF00810081015
:104D200008500820CFDE00007BF84A08520853F8EC
:104D3000620852084BF84A444A486A3052204210EE
:104D4000428843064200B9AB0080048004800840DA
:104D50000840102020104208820604000440082069
:104D600010203FF010100000CBBE00003FF80008FC
:104D700000087FE8000800081F8810881088108845
:104D800010881F88108800280010BBB600800080A3
:104D9000FC8004FC050449082A401440104028A067
:104DA00024A045108110020804040802D3AD0000BD
:104DB0002080133C122402240224F2241224122400
:104DC00012B4132812201020282047FE0000C4FA35
:104DD0000900090011FC320454489950114812444A
:104DE00014441140108002005104511290120FF02F
:104DF000B4BF00000020102013FE202026244A24E7
:104E00007A241224222423FC7C20002204227822EB
:104E1000003CC9AB0000000004000FF0102020206F
:104E20007FFC20842084208420843FF820002002FE
:104E300020021FFECCEE00000000204023FE204098
:104E400079FC220423FC220423FC220423FC3A04E0
:104E500065FA01980204B3E40000010001007FFE3E
:104E600002200410040808043FFC044204400440EB
:104E7000044208421042607EBED800000000207E3E
:104E80003E804880488048FE48827F8208820C82AB
:104E900014FA12842280218040FED0CE000000004F
:104EA0007F842208223022C0220222047FC82230BE
:104EB00022C222022204220822304040BBAD000060
:104EC00000007FFE00000FF01110111011105112A0
:104ED0005FF25112511251124FF240027FFCD4B2D4
:104EE000000000007FFE47E24812481247E24FF2FE
:104EF000501250125112511242924472580A3FFC01
:104F0000CDBC000000003FFE440247F24C22536239
:104F1000408243625E1A41824062430240C24022A4
:104F20003FFCC6AC000000402040204020403FFE37
:104F30002000200020003FE0201020102010201032
:104F400040104010CFD4000000003FFC200420049B
:104F50003FFC200420041FF824441448144814483B
:104F60000C5004407FFECABE000000003FFC000061
:104F7000000000007FFE00800890088810881084E0
:104F80002084208240820780B2CB000000200820CD
:104F90007FFE002000783F881108089009207FFEDE
:104FA000018003400D30310C4002B5A50000001017
:104FB000081004203FF8210421043FFC21042104AF
:104FC0003FF801007FFE010001000100D6D0000083
:104FD0000100010001003FFC2104210421042104FF
:104FE000210421043FFC0100010001000100D3A2C3
:104FF0000000000008207FFE0820092001003FF883
:105000002108210821081FF4014002200C10700E15
:10501000CEC400000100010000803F7C0810081091
:1050200004100420022002400180018002601C184C
:10503000E006D7DB00000000102011FE2202220251
:1050400049FC5800300013FE2528792401240D2442
:10505000722202A2BACF0000000001800240043098
:10506000180860061FF800001FF820042004200420
:10507000200420041FF8C1C10000010001007FFED0
:1050800000003FF820083FF83FF8400647C2482498
:10509000082008221022603EB6C8000000000080F0
:1050A0003FFE44105FFC4410441043F040005FF8A2
:1050B0004408423041C04360BC1EB2E20000000020
:1050C00067C2145205520552C55225520552055267
:1050D00015521752228222424442483ECAD400004E
:1050E00000002014101417FE00120010601013F0BE
:1050F000109010901090149214EA1F0A0006B3CC7E
:105100000000000019FE7202120212027DFC18005B
:105110001BFE3420502053FE10201020102013FEC0
:10512000D0F20000000000803FFE400047FC420833
:10513000413040C05FFE4042404240444048404011
:105140004440B5F70000000023FE122202FA0222BA
:10515000E22212FE1272128A128A128A16BA1A42B7
:105160001202040EB9E2000001000104110809084E
:10517000091009207FFE0440044004400440084216
:1051800008421042607CB0E60000000048FE490082
:10519000490049007EFE4182414479444528452822
:1051A0004510452846440382C8A80000100010009E
:1051B00013FC7D041104190418843488504850509D
:1051C00010201050108813041402CBF900000000C6
:1051D0003F7C204020403E40227E22442244224404
:1051E0003E8420842084408441044204C9EE0000AF
:1051F000000000001000000800080C7FFC044010B4
:1052000001C8A002186042301832231812C30014DB
:10521000030004030C047FF0080F80080B40781390
:105220006018332018631818831C1903081803002A
:10523000000300000000DBDA0000000000000410A2
:105240000C04180C04108C04108C04108C04108CAA
:1052500004D08C3F108C04108C04108C04108C042F
:10526000108C04108C04108C05F08C0E208C78208F
:105270008C20408C00808C01000C02000C0000008F
:10528000CAD0000000000000003000001800001824
:105290000800001C1FFFE000180000182007FFF0A6
:1052A00004182004182004182004182004182004CE
:1052B00018200418200418200418200418E00418EA
:1052C00040001800001800000000D6D000000000C8
:1052D0000000000000000000001800001800001886
:1052E000000018003FFFFE30180630180630180680
:1052F0003018063018063FFFFE3018060018000070
:10530000180000180000180000180000000000003D
:1053100000000000CEC400000000000000000000FB
:105320003800001C00000600FFFFFF0600300600EA
:10533000300300600300600180C000C18000E30012
:10534000003600001C0000770003C1E01E003C6036
:105350000007000000000000000000000000B2E2B2
:1053600000000000000000000000000040000321D9
:10537000FF33398333118333019B33C19B33719BDB
:1053800033199B33019B33019B33119B3319B33387
:10539000303033306C0330C6036383032E01BE000C
:1053A0000000000000000000CAD40000000000005F
:1053B0000000000000004000D83000CE1800C21CE1
:1053C00000C001FFFF0000C0F800C01800C019FFB6
:1053D000C01818401818601918601B18611E183181
:1053E0001C1FB139F01910000F0000000000000070
:1053F0000000D7D6000000000006000000030000F7
:105400000000C0000001C0C0000107C00001FF0093
:10541000021FFE0007F01C0007C070000F00E00034
:105420000E03F0001C0FF0003C0F70003C00E00089
:105430001800C0000000C0000000C00000006000B4
:1054400000002000000037000001FF00007FF8008E
:1054500007F830001F8030000080300000C03000AE
:10546000006060000018E000000FC00000060000AF
:1054700000000000CCE5000000000000000000007B
:1054800000C0000000E0002001B800703FF800619B
:10549000FFC000C3030001C60600038C060003081A
:1054A0000C0006080C000E18183F1E101BF31F906E
:1054B0003F0700803C1C0190707C019060FE01A0C1
:1054C000C3F801A00FD803A0081803600018034018
:1054D000001803C000180380001803000018000023
:1054E0000018000000100000003000000030000034
:1054F000000000000000B2E2000000000000000018
:105500000000000000000000020C1008071FF80453
:1055100003BFF00201BC300303EC3003015C600305
:1055200000D8600300D860038098620361B8430725
:1055300071B14306313243063376C3063A64C70677
:105540003EECC0063E78C0063C3040067C7000064B
:1055500078E060067BFFF006F7C00006E400000676
:1055600040000006000000060000007C00008FF0F4
:1055700000007C0000000000CAD400000000000011
:1055800000000000000000003F0000007F800000DD
:105590000180000000C0000000C0000000CE0380B9
:1055A00000CFFFC000DD41800FFE0007FFFC000CB4
:1055B00000F000180FC03E19FF40F311BC608330AB
:1055C0007FE003B1FE2003338020037000300360CE
:1055D00000100360001807C0000C07C0000407801B
:1055E00000020100000300000001000000000000B4
:1055F0000000000000000000000000001C56000831
:105600000000002044000000E83800086056000850
:10561000440000205C180000F83800080100000079
:1056200010000000000000000024F4000000000052
:10563000000000000000000000000000000000006A
:10564000000000000000000000000000000000005A
:10565000000000000000FFFF00000000000000004C
:04000005080000ED02
:00000001FF
